:100000000C945D000C9485000C9485000C94850084
:100010000C9485000C9485000C9485000C9485004C
:100020000C9485000C9485000C9485000C9485003C
:100030000C9485000C9485000C9485000C9485002C
:100040000C940C020C9485000C947C020C945602C7
:100050000C9485000C9485000C9485000C9485000C
:100060000C9485000C94850000000008000201003B
:100070000003040700000000000000000000000072
:10008000250028002B0000000000240027002A0083
:10009000040404040404040402020202020203032E
:1000A0000303030301020408102040800102040836
:1000B0001020010204081020920311241FBECFEF6C
:1000C000D8E0DEBFCDBF11E0A0E0B1E0EEE8F7E0A0
:1000D00002C005900D92AA38B107D9F722E0AAE82C
:1000E000B1E001C01D92A033B207E1F710E0CDE509
:1000F000D0E004C02197FE010E94BF03CC35D10798
:10010000C9F70E94AE020C94C5030C94000090E065
:10011000FC01EC55FF4F249180579F4FFC018491C7
:10012000882399F090E0880F991FFC01EA57FF4F50
:10013000A591B491FC01E458FF4F859194918FB73C
:10014000F894EC91E22BEC938FBF0895AF92BF929D
:10015000CF92DF92EF92FF920F931F93CF93DF9393
:100160006C017B018B01040F151FEB015E01AE18C2
:10017000BF08C017D10759F06991D601ED91FC91E4
:100180000190F081E02DC6010995892B79F7C50111
:10019000DF91CF911F910F91FF90EF90DF90CF9063
:1001A000BF90AF900895FC01538D448D252F30E012
:1001B000842F90E0821B930B541710F0CF96089574
:1001C00001970895FC01918D828D981761F0A28DA1
:1001D000AE0FBF2FB11D5D968C91928D9F5F9F7367
:1001E000928F90E008958FEF9FEF0895FC01918D1D
:1001F000828D981731F0828DE80FF11D858D90E08A
:1002000008958FEF9FEF0895FC01918D228D892F26
:1002100090E0805C9F4F821B91098F73992708950E
:1002200083E991E00E94040121E0892B09F420E098
:10023000822F089580E090E0892B29F00E94100120
:1002400081110C9400000895FC01A48DA80FB92F12
:10025000B11DA35ABF4F2C91848D90E001968F73EE
:100260009927848FA689B7892C93A089B1898C910D
:10027000837080648C93938D848D981306C002885C
:10028000F389E02D80818F7D80830895EF92FF9226
:100290000F931F93CF93DF93EC0181E0888F9B8DA9
:1002A0008C8D98131AC0E889F989808185FF15C063
:1002B0009FB7F894EE89FF896083E889F989808186
:1002C0008370806480839FBF81E090E0DF91CF9155
:1002D0001F910F91FF90EF900895F62E0B8D10E077
:1002E0000F5F1F4F0F731127E02E8C8D8E110CC0E6
:1002F0000FB607FCFACFE889F989808185FFF5CF31
:10030000CE010E942401F1CFEB8DEC0FFD2FF11DEA
:10031000E35AFF4FF0829FB7F8940B8FEA89FB896D
:1003200080818062CFCFCF93DF93EC01888D8823CB
:10033000B9F0AA89BB89E889F9898C9185FD03C048
:10034000808186FD0DC00FB607FCF7CF8C9185FF2D
:10035000F2CF808185FFEDCFCE010E942401E9CF4D
:10036000DF91CF91089590E0FC01E859FF4F24916F
:10037000FC01EC55FF4F3491FC01E057FF4FE49135
:10038000EE23C9F0222339F0233001F1A8F4213003
:1003900019F1223029F1F0E0EE0FFF1FE458FF4F72
:1003A000A591B4918FB7F894EC91611126C0309566
:1003B0003E233C938FBF08952730A9F02830C9F021
:1003C000243049F7809180008F7D03C080918000A8
:1003D0008F7780938000DFCF84B58F7784BDDBCFAC
:1003E00084B58F7DFBCF8091B0008F778093B00074
:1003F000D2CF8091B0008F7DF9CF3E2BDACFFC01B8
:1004000001900020E9F73197AF01481B590BBC015F
:1004100083E991E00C94A6001F920F920FB60F9201
:1004200011242F933F938F939F93AF93BF9380910A
:100430008F0190919001A0919101B0919201309122
:100440008E0123E0230F2D3758F50196A11DB11D14
:1004500020938E0180938F0190939001A09391013E
:10046000B093920180918A0190918B01A0918C01AF
:10047000B0918D010196A11DB11D80938A019093C9
:100480008B01A0938C01B0938D01BF91AF919F918F
:100490008F913F912F910F900FBE0F901F90189545
:1004A00026E8230F0296A11DB11DD2CF1F920F92F5
:1004B0000FB60F9211242F933F934F935F936F9337
:1004C0007F938F939F93AF93BF93EF93FF9383E9B2
:1004D00091E00E942401FF91EF91BF91AF919F9114
:1004E0008F917F916F915F914F913F912F910F90DD
:1004F0000FBE0F901F9018951F920F920FB60F927C
:1005000011242F938F939F93EF93FF93E091A30177
:10051000F091A4018081E091A901F091AA0182FDEE
:100520001BC090818091AC018F5F8F732091AD01D2
:10053000821741F0E091AC01F0E0ED56FE4F958F4F
:100540008093AC01FF91EF919F918F912F910F902C
:100550000FBE0F901F9018958081F4CF789484B5CA
:10056000826084BD84B5816084BD85B5826085BDAF
:1005700085B5816085BD80916E00816080936E003D
:10058000109281008091810082608093810080912F
:1005900081008160809381008091800081608093E0
:1005A00080008091B10084608093B1008091B000A0
:1005B00081608093B00080917A00846080937A009B
:1005C00080917A00826080937A0080917A008160C5
:1005D00080937A0080917A00806880937A001092EC
:1005E000C10082E00E94870083E00E94870084E0CF
:1005F0000E94870085E00E94870086E00E948700B5
:1006000087E00E94870088E00E948700E091A301B4
:10061000F091A40182E08083E0919F01F091A0011C
:100620001082E091A101F091A2018FEC80831092E1
:10063000AB01E091A701F091A80186E08083E091F1
:10064000A501F091A601808180618083E091A501E0
:10065000F091A601808188608083E091A501F091EE
:10066000A601808180688083E091A501F091A601B8
:1006700080818F7D808388E591E00E94FF018CE678
:1006800091E00E94FF0187E0F82E00E010E083E98E
:1006900091E00E940401892B91F183E991E00E948D
:1006A000E20090ED980F9A30A0F5082E000C990BFF
:1006B000C0978A30910518F5F89EE001F99ED00D9B
:1006C0001124CE5EDE4F688182E00E94B301698111
:1006D00083E00E94B3016A8184E00E94B3016B81D0
:1006E00085E00E94B3016C8186E00E94B3016D81B8
:1006F00087E00E94B3016E8188E00E94B30101157A
:10070000110529F20E941001882309F20E940000BD
:10071000BECF8FE691E00E94FF018CE691E00E943F
:10072000FF01EDCFE3E9F1E01382128288EE93E05E
:10073000A0E0B0E084839583A683B78384E091E052
:100740009183808385EC90E09587848784EC90E0AA
:100750009787868780EC90E0918B808B81EC90E08E
:10076000938B828B82EC90E0958B848B86EC90E06F
:10077000978B868B118E128E138E148E0895EE0F2A
:0E078000FF1F0590F491E02D0994F894FFCF2F
:10078E00000000004601A600D30093010401E20020
:10079E00F60000000000000001010000010101014F
:1007AE000000010000010000000000010100010036
:1007BE000001010000000100000100000001000026
:1007CE000000000000000101010100000000000017
:1007DE0000000000000100004D6173756B6B616ECF
:1007EE0020616E676B6120302D393A000D0A004D85
:1007FE006173756B6B616E2068616E796120616EDD
:0A080E00676B6120302D39210000D6
:00000001FF
